:020000040800F2
:1000000050080020BD010008E11B0008D91B0008B2
:10001000DD1B000871040008B92000080000000082
:10002000000000000000000000000000E91B0008C4
:100030008D04000800000000E51B0008ED1B00080F
:10004000D7010008D7010008D7010008D701000830
:10005000D7010008D7010008D7010008D701000820
:10006000D7010008D7010008D7010008D701000810
:10007000D7010008D70100087504000881040008B2
:10008000D7010008D7010008D7010008D7010008F0
:10009000D7010008D7010008D7010008D7010008E0
:1000A000D7010008D7010008D7010008D7010008D0
:1000B000D7010008D7010008D7010008D7010008C0
:1000C000D7010008D7010008D7010008D7010008B0
:1000D000D7010008AD200008D7010008D7010008AB
:1000E000D7010008D7010008D701000800F002F886
:1000F00000F055F814A696E8000CB244B344DA4573
:1001000001D100F04CF8BAE80F000FA696E83000D5
:10011000A5EB040504EB0607AAEB0704A7F101070A
:100120004FEA15154FEA3414A4F10104AC4201D38F
:1001300000F035F813F0010F18BFFB1A43F001036C
:1001400000F001F8DBE71847EC2100000C2200006A
:10015000103A24BF78C878C1FAD8520724BF30C8F3
:1001600030C144BF04680C60704700007047000055
:100170000023002400250026103A28BF78C1FBD8B0
:10018000520728BF30C148BF0B607047642900F098
:100190007F80002070471FB51FBD10B510BD00F057
:1001A0002CF91146FFF7F7FF01F088FF00F04AF93C
:1001B00003B4FFF7F2FF03BC00F052F9094880478F
:1001C00009480047FEE7FEE7FEE7FEE7FEE7FEE739
:1001D000FEE7FEE7FEE7FEE704480549054A064B51
:1001E00070470000F11B0008ED00000850020020DD
:1001F0005008002050040020500400200FB41CB50B
:10020000084B06AA7B4469460090059800F0DDF88B
:1002100004460020694600F0EBF820461CBC5DF85F
:1002200014FB0000E90100002DE9F0410E460446F0
:10023000002020622046E168884730B3252805D099
:10024000D4E901219047206A401CF2E7E16820468A
:1002500000278847050018D0A5F14100192802D8C9
:1002600020354FF400673246294620462760FFF7C5
:100270008DFF40B1012804D0F61D26F00706083690
:10028000D8E7361DD6E72846DAE7206ABDE8F081D0
:100290002DE9F0410646002410687529314616A55F
:1002A00010D0AFF30080002802DA404213A507E027
:1002B00031688A0701D512A502E0490704D511A5C6
:1002C000012401E0AFF3008000210A2206F1240797
:1002D00009E0B0FBF2FCB0FBF2F302FB1C00303093
:1002E00078541846491C0028F3D123462A46304644
:1002F000BDE8F04100F00BB8000000002D00000048
:100300002B000000200000007047704770472DE967
:10031000F0470D4699469246044600F124080168CC
:10032000880604D5E06921F01001216000E0012079
:10033000A84201DD471B00E00027A1697A1902EB02
:100340000900081AA0612078C00602D42046AFF345
:100350000080002608E0D4E901211AF80600904741
:10036000206A401C761C20624E45F4DB2078C006D3
:100370000AD52046AFF3008006E0D4E90121302001
:100380009047206A401C2062381EA7F10107F4DC68
:1003900007E0D4E9012118F805009047206A401CC5
:1003A0002062281EA5F10105F3DC2046AFF3008092
:1003B0002078000602D50220BDE8F0870120FBE787
:1003C00001694A1C02610878704700B58FB0CDE919
:1003D00001310021059105497944CDE90310114609
:1003E0006846FFF721FF0FB000BD0000E5FFFFFFEB
:1003F0000A6802F8010B0A607047754600F02CF895
:10040000AE4605006946534620F00700854618B001
:1004100020B5FFF7E1FEBDE820404FF000064FF0A9
:1004200000074FF000084FF0000BAC46ACE8C009E5
:10043000ACE8C009ACE8C009ACE8C00921F007018C
:100440008D46704710B50446AFF300802046BDE8E6
:100450001040FFF7ADBE00000048704710000020BC
:1004600001491820ABBEFEE72600020070470000DD
:10047000FEE7000040F24010C2F2000000F08EB82B
:1004800040F27C00C2F2000000F088B87047000023
:10049000EFF3108072B600BFFEE70000014690F84F
:1004A0002100022816D10868D1E90FC3026822F0A2
:1004B0000E020260026822F001020260012000FACE
:1004C00003F2CCF8042081F821000020002281F8FA
:1004D00020207047042088630120002281F820201A
:1004E0007047000090F82110022923D1026840F2E1
:1004F000040C1168C4F2020C21F00E0111601368A3
:100500002F21C4F202018A4223F00103136015DD9A
:100510003023C4F202039A421CD04423C4F20203E3
:100520009A421BD05823C4F202039A421CD14FF4C2
:10053000803321E004218163012070470823C4F245
:1005400002039A420ED01C23C4F202039A420BD13A
:10055000102311E04FF480730EE000BF4FF480537E
:100560000AE000BF012307E00CF168014FF080733F
:100570008A4208BF4FF480130121CCF8003080F884
:100580002110416B0022002980F8202004BF0020A8
:10059000704780B58847002080BD000010B5D0E9C5
:1005A0000FCE0168DCF800300A6823FA0EF35C070E
:1005B0002AD512F0040427D00A68920603D40A68E8
:1005C00022F004020A602F22C4F20202914240F299
:1005D0000402C4F202025BDD3023C4F2020399423A
:1005E00072D04423C4F20203994273D05823C4F258
:1005F0000203994240F07A804FF480231360C16A6D
:10060000002940F098806FE09C0727D512F0020483
:1006100024D00A68920606D40A6822F00A020A6008
:10062000012280F821202F22C4F20202914240F2DE
:100630000402C4F202023BDD3023C4F202039942F9
:1006400060D04423C4F2020399425FD05823C4F21D
:100650000203994260D14FF4003365E01B0743D594
:1006600012F0080208BF10BD0A6822F00E020A60EC
:10067000012101FA0EF2CCF80420816380F82110E8
:10068000016B0022002980F8202054D12CE000BF0B
:100690000823C4F20203994222D01C23C4F20203AD
:1006A000994223D140231360C16A002943D11BE042
:1006B0000823C4F2020399422CD01C23C4F2020383
:1006C000994229D120232FE04FF480631360C16A3F
:1006D00089BB09E04FF480431360C16A59BB03E052
:1006E00004231360C16A31BB10BD00BF02F168046E
:1006F0004FF08063A14208BF4FF480031360C16ACA
:10070000C9B9F1E74FF400730EE000BF4FF4005396
:100710000AE000BF022307E002F168044FF0007313
:10072000A14208BF4FF400131360816A0022002920
:1007300080F82020D8D0BDE81040084701460028A6
:100740004FF0010008BF70472DE9F043D1F800C019
:100750004FF6F873CBF6FD734CF6CD426344CCF6FE
:10076000CC42A3FB02236FF0030202EA93020023B0
:10077000C4F2020301F10C08C1E90F320222D1E9EF
:10078000019E98E8F00181F82120DCF8002043F672
:10079000F0739A4342EA090242EA0E0222432A43D4
:1007A00032433A4342EA0802CCF8002000228A632E
:1007B00081F8210081F820200020BDE8F043704737
:1007C00090F820C0BCF1010F04BF02207047F0B5C3
:1007D0004FF0010E80F820E090F821C0BCF1010F2D
:1007E00026D14FF0020C80F821C04FF0000CC0F869
:1007F00038C0D0E900C4C56AC66BDCF80070102CA4
:1008000027F00107CCF80070006C0EFA00F0706061
:100810000846CCF8043004BF10460A46CCF808005D
:10082000CCF80C20DCF8000045B140F00E000DE0E3
:10083000002180F820100220F0BD00BF20F004004D
:10084000CCF80000DCF8000040F00A00CCF8000012
:10085000DCF8000040F00100CCF800000020F0BD02
:100860002DE9F04F82B00E68002E00F0FD8041F2BD
:100870000042C4F20102042340F2004E904208BF3D
:1008800003234FF6FF7CC4F2010E009300240123E2
:10089000C1F2100C4FF0000A4FF000094BE000BF0E
:1008A00041F20002C4F20102009F904208BF0227F9
:1008B00004F00C030F229A402BEA020207FA03F31A
:1008C0004FEA9A051A4346F825204E6840F20C4537
:1008D000F202DEF8082054BF22EA080242EA0802C7
:1008E000C4F20105CEF808202A68B30254BF22EAF8
:1008F000080242EA08022A60B303DEF8042054BF6B
:1009000022EA080242EA0802F303CEF80420DEF8E5
:1009100000204FF0010354BF22EA080242EA080215
:10092000CEF800200E680AF1010A36FA0AF204F144
:10093000040400F0998003FA0AFB16EA0B08F1D0D0
:100940004E68664512DC122E56D8DFE806F0350BED
:100950004D4955555555555555555555555555456B
:10096000510000BFD1F80C9046E000BF4FF6FF7277
:10097000C1F2210296420FDC0022C1F2110296421E
:100980001AD00022C1F21202964215D00022C1F202
:100990002102964210D02FE00022C1F2220296429C
:1009A0000AD00022C1F23102964205D00022C1F2E3
:1009B0003202964220D100BF8A684AB1012A14BF90
:1009C000C0F814B0C0F810B04FF0080914E000BF30
:1009D0004FF0040910E000BFCA6802F104090BE0FF
:1009E0004FF0000908E000BFCA6802F1080903E0FF
:1009F000CA6802F10C0900BF02462646B8F5807F9E
:100A000024BF0432203E17680F25B54027EA0505AC
:100A100009FA06F635431560CA79D2067FF582AF2A
:100A200041F21803C4F202031A68AEF57E7642F072
:100A300001021A601A6802F001020192019A2AF07A
:100A4000030256F802B040F60002C4F201029042DE
:100A500008D040F60042C4F2010290427FF420AF79
:100A6000012725E7002723E702B0BDE8F08F00004B
:100A700040F24C20C2F200000068704740F20000D3
:100A800040F24C21C2F20000C2F2000100780A6874
:100A9000104408607047000080B542F20000C4F2C4
:100AA0000200016841F010010160032000F08CF8A1
:100AB0000F2000F005F800F027F8002080BD0000AE
:100AC00070B540F20006C2F2000640F2080132782A
:100AD000C2F200014FF47A730968B3FBF2F20446E4
:100AE000B1FBF2F1084600F085FB0F2C4FF0010539
:100AF00008D838B94FF0FF3021460022002500F019
:100B000037F87460284670BD82B041F21800C4F214
:100B100002000168022241F001010160016801F058
:100B2000010101910199416841F0805141604068A3
:100B300000F08050009000980420C4F20100016889
:100B400062F31A61016002B070470000002848BFDC
:100B5000704700F01F01012202FA01F11C2202EA93
:100B6000D0004EF20012CEF2000281507047000019
:100B700010B54EF60C5CCEF2000CDCF80030C3F37E
:100B8000022E8EF00704042C28BF0424BEF10303B8
:100B90004FF0FF3E0EFA04F438BF0023A143994002
:100BA0000EFA03F39A43114300F00F0200F1604381
:100BB0000901043A03F564436244002848BF02F186
:100BC0000C03197010BD00004EF60C51CEF200015E
:100BD0000A684FF6FF031A4060F30A2242F0806071
:100BE00040F0FD7008607047002804BF0120704786
:100BF0002DE9F04381B042F20008C4F20208044635
:100C0000D8F800000D4600F0070081420CD9D8F852
:100C1000000020F007002843C8F80000D8F80000C2
:100C200000F00700A8426CD1206841F20409810756
:100C3000C4F2020917D5410705D5D9F8001041F4CF
:100C4000E061C9F80010010705D5D9F8001041F49A
:100C50006051C9F80010D9F80010A26821F0F00125
:100C60001143C9F80010C00742D1D8F8000000F0C5
:100C7000070085420CD2D8F8000020F00700284376
:100C8000C8F80000D8F8000000F00700A84238D1EA
:100C90002068410707D5D9F80010E26821F4E06127
:100CA0001143C9F80010000708D5D9F800002169E0
:100CB00020F4605040EAC100C9F80000D9F80020D3
:100CC00002F00C00082841F20020C0F27A004DD159
:100CD00042F22233C2F38341C0F60003595CD203CF
:100CE00038D440F60010C0F23D0048433EE000BF5B
:100CF000606859F8041C022808D0012826D189030D
:100D000006D4012001B0BDE8F08300BF8901F8D509
:100D1000D9F8001021F003010843C9F80000FFF7DB
:100D2000A7FE064641F28837D9F80000616800F056
:100D30000C00B0EB810F98D0FFF79AFE801BB842F1
:100D4000F2D9032001B0BDE8F08300BF8907D8D5F0
:100D5000DEE700BFD9F8002042F22033C2F3404260
:100D6000C0F600039A5C4843B0FBF2F0D9F80010DB
:100D700042F20832C1F30311C0F60002515C40F2A6
:100D8000080220FA01F140F20400C2F200000068FB
:100D9000C2F200021160FFF793FE002001B0BDE82F
:100DA000F083000040F2080041F20401C2F20000AA
:100DB000C4F202010068096842F21832C1F302214C
:100DC000C0F60002515CC8407047000040F20800C5
:100DD00041F20401C2F20000C4F202010068096895
:100DE00042F21832C1F3C221C0F60002515CC84081
:100DF00070470000002804BF012070472DE9F04132
:100E000082B00446007841F20006C007C4F2020630
:100E10000CD0706800F00C00042840F0818030682D
:100E2000800303D56068002800F0468120788007A1
:100E30001BD5706810F00C0F09D0706800F00C0022
:100E4000082840F087807068C00300F18380306814
:100E5000800703D52069012840F02E813068616940
:100E600020F0F80040EAC10030602078000713D479
:100E7000207840072CD4E569002D00F018817068B7
:100E800000F00C00082840F0A780012D40F00481FC
:100E9000012002B0BDE8F081A069002800F0848044
:100EA0000020C4F242200121C0F88014FFF7E0FDC9
:100EB000054600BF706A800700F1B280FFF7D8FDD9
:100EC000401B0228F6D9032002B0BDE8F08100BF24
:100ED000F0695FEAC00808D4F06940F08050F06122
:100EE000F06900F080500090009847F20007C4F2CB
:100EF00000073868C00549D4386840F4807038600D
:100F0000FFF7B6FD054600BF3868C0053ED4FFF7C1
:100F1000AFFD401B6428F7D9032002B0BDE8F08183
:100F2000706800F00C00082803D17068C0033FF51A
:100F300076AF61683068002900F00C81B1F5A02F10
:100F400000F00081B1F5803F40F01A8140F480301C
:100F50001CE100BF2069002840F20000C4F24220DA
:100F600000F0888001210160FFF782FD054600BF87
:100F7000306880073FF572AFFFF77AFD401B02280B
:100F8000F6D9032002B0BDE8F08100BFE168306A05
:100F9000002900F09D80052900F09280012940F091
:100FA000AF8040F00100B1E00020C4F242200021F7
:100FB000C0F88014FFF75CFD054600BF706A80072B
:100FC0007FF556AFFFF754FD401B0228F6D90320EA
:100FD00002B0BDE8F08100BF0027C4F24227002024
:100FE0003866FFF745FD022D05460DD130688001BA
:100FF00040F1DE80FFF73CFD401B02284FF003006C
:10100000F4D902B0BDE8F081306880014FD5FFF718
:101010002FFD401B02284FF00300F5D9F1E700BF78
:1010200040F20800C2F20000006844F6D351C1F259
:101030006201A0FB0101480A019000BF00BF0198B6
:10104000411E002801913FF413AF00BF0198411EDB
:10105000002801913FF40CAF00BF0198411E002809
:1010600001913FF405AF00BF0198411E0028019196
:10107000E4D1FDE600210160FFF7FAFC054600BF60
:10108000306880077FF5F1AEFFF7F2FC401B0228C5
:101090004FF00300F4D9B4E77068216A00F480329D
:1010A0008A4209D1616A00F47010884204D100209C
:1010B00002B0BDE8F08100BF012002B0BDE8F081C0
:1010C00040F004003062306A40F001001EE000BFD2
:1010D00020F001003062306A20F004003062FFF737
:1010E000C7FC054641F28837306A800720D5FFF7F4
:1010F000BFFC401BB8424FF00300F5D981E700BFA9
:1011000020F001003062306A20F004003062FFF706
:10111000AFFC054641F28837306A800708D4FFF7F4
:10112000A7FC401BB842F7D9032002B0BDE8F0810C
:10113000B8F1000F3FF59FAEF06920F08050F061EC
:1011400099E600BF40F480203060306840F4803081
:101150001CE000BF20F480303060306820F4802034
:101160003060FFF785FC0546306880037FF55EAE92
:10117000FFF77EFC401B64284FF00300F4D940E7E2
:1011800020F480303060306820F480203060FFF739
:101190006FFC0546306880033FF548AEFFF768FCFA
:1011A000401B6428F6D9032002B0BDE8F08100BFDF
:1011B000206AB0F5803F05D17168A26821F4003142
:1011C000114371607168626A21F47411114308431C
:1011D000706001203866FFF74BFC044630688001E0
:1011E0003FF565AFFFF744FC001B02284FF00300FA
:1011F000F4D906E7411E0020B0EB116F1CBF01209F
:1012000070474EF21002CEF2000251604EF62351AA
:10121000CEF20001F0230B7007219060116070473F
:101220007047000070470000B0B582B001680A68DE
:10123000CC684B6902F02F05202D04F0200505D164
:1012400025B102B0BDE8B04000F0B0BE5FEA027C5C
:101250001EBF03F0010E04F4907313EB0E0341D193
:10126000036BD50618D5012B16D114F0100313D03B
:10127000002201920A6801924A680192019A496922
:1012800049064BD4818DC28DC38D002B18BF91426E
:1012900040F0F48102B0B0BD13062DD514F08003E8
:1012A0002AD090F84120212AF4D18268B2F5805FDB
:1012B00003D10269002A00F06782026A531C0362AC
:1012C00012784A60C28C013A1304C284E2D1C86821
:1012D00020F08000C860C86840F04000C86002B0DC
:1012E000B0BD00BFD30718BF14F4807340F0D080A6
:1012F000530700F1D380D8E05206CBD514F040025A
:10130000C8D0CA6822F04002CA60202180F841108B
:1013100002B0BDE8B04000F04DBC00BFC16B0A6830
:10132000526893B2002BB5D0858DAB42B2D2C28544
:101330008969202900F0A180016851E8031F026833
:1013400021F4807142E80313DBB1016851E8031F07
:10135000026821F4807142E8031393B1016851E8F7
:10136000031F026821F4807142E803134BB1016846
:1013700051E8031F026821F4807142E80313002B37
:10138000DAD1016851E8051F026821F0010142E845
:101390000513C3B3016851E8051F026821F001017C
:1013A00042E805137BB3016851E8051F026821F08C
:1013B000010142E8051333B3016851E8051F0268D3
:1013C00021F0010142E80513002BDAD11BE000BF38
:1013D000016851E8051F026821F0400142E8051349
:1013E000DBB1016851E8051F026821F0400142E8C5
:1013F000051393B1016851E8051F026821F040010F
:1014000042E805134BB1016851E8051F026821F05D
:10141000400142E80513002BDAD1202180F8421068
:1014200000210163016851E8031F026821F01001E7
:1014300042E80313DBB1016851E8031F026821F0A1
:10144000100142E8031393B1016851E8031F0268D9
:1014500021F0100142E803134BB1016851E8031F6A
:10146000026821F0100142E80313002BDAD1C16BAE
:1014700004460846FFF712F8204602214163818D99
:10148000C28D891A89B202B0BDE8B040FFF7C8BE6C
:10149000436C43F001034364530706D5BEF1000FCC
:1014A00003D0436C43F002034364930706D5BEF1B7
:1014B000000F03D0436C43F004034364BCF1000FFE
:1014C00006D55EEA050303D0436C43F0080343648A
:1014D000436C002B3FF4DEAE920605D525B10446E1
:1014E00000F064FD216820464969426C01F040012A
:1014F00002F00802891800F0B98000BF016851E8C5
:10150000031F026821F4907142E80313BBB3016822
:1015100051E8031F026821F4907142E8031373B38A
:10152000016851E8031F026821F4907142E8031337
:101530002BB3016851E8031F026821F4907142E85F
:101540000313002BDAD11AE0016851E8051F026885
:1015500021F0010142E80513DBB1016851E8051FE4
:10156000026821F0010142E8051393B1016851E8D6
:10157000051F026821F0010142E805134BB1016823
:1015800051E8051F026821F0010142E80513002B14
:10159000DAD1016B012924D1016851E8031F0268E7
:1015A00021F0100142E80313DBB1016851E8031F89
:1015B000026821F0100142E8031393B1016851E879
:1015C000031F026821F0100142E803134BB10168C8
:1015D00051E8031F026821F0100142E80313002BB9
:1015E000DAD1202180F842100021016301684969A5
:1015F000490640F1C380016851E8051F026821F0E7
:10160000400142E80513DBB1016851E8051F02689B
:1016100021F0400142E8051393B1016851E8051F2C
:10162000026821F0400142E805134BB1016851E81E
:10163000051F026821F0400142E80513002BDAD1B2
:10164000C16B002900F09A8041F6F532C0F6000225
:10165000044608464A63FEF745FF00283FF41AAEE9
:10166000E06B416B02B0BDE8B04008470446FFF7AD
:10167000D9FD0020606402B0B0BD00BF891A00BF70
:10168000026852E8032F036822F4907243E80325AE
:10169000BDB3026852E8032F036822F4907243E856
:1016A000032575B3026852E8032F036822F4907291
:1016B00043E803252DB3026852E8032F036822F4A0
:1016C000907243E80325002DDAD11AE0026852E84F
:1016D000052F036822F0010243E80525DDB1026809
:1016E00052E8052F036822F0010243E8052595B171
:1016F000026852E8052F036822F0010243E805253D
:101700004DB1026852E8052F036822F0010243E858
:101710000525002DDAD1202280F842200022026324
:10172000026852E8032F036822F0100243E8032501
:10173000DDB1026852E8032F036822F0100243E88B
:10174000032595B1026852E8032F036822F01002C6
:1017500043E803254DB1026852E8032F036822F0E5
:10176000100243E80325002DDAD1022289B2426338
:1017700002B0BDE8B040FFF753BD00BF02B0BDE806
:10178000B040FFF74FBD00BF026A32F8023B6FF373
:101790005F234B60026295E5002804BF012070477B
:1017A00010B5044690F8410028B9002084F84000A4
:1017B000204600F063F8242084F841002068D4E932
:1017C0000212C36823F40053C360036923F4405337
:1017D0001A430261D4E904231143C268194341F258
:1017E0000C639A431143C1604169A26921F44071BD
:1017F000114343F60002C4F201029042416103D05A
:10180000FFF7D0FA02E000BFFFF7E0FAD4E90023C7
:10181000192148439900B0FBF1F048F21F5CC5F272
:10182000EB1CA0FB0C314FF69C734909C0F6FF730B
:1018300001FB0300322303EB0010A0FB0C03F0209C
:1018400000EA531000EB0110C3F343110844906009
:101850001069202120F490401061506920F02A0086
:101860005061D06840F40050D0600020606484F87B
:10187000411084F84210606310BD00002DE9F04172
:1018800086B040F600050446C4F20105006805F57F
:101890004051002788420597CDE90377029703D08E
:1018A00006B0BDE8F08100BF41F21800C4F20200AA
:1018B000016802AE41F480410160016840F24408D1
:1018C00001F48041019101990168C4F2020841F0DC
:1018D000040101600068314600F0040001900198A5
:1018E0004FF40070029002200390032005902846D8
:1018F000FEF7B6FF4FF48060CDE902072846314677
:101900000497FEF7ADFF40F24015C2F2000510202B
:101910008026C5E900802846C5E90276C5E9047736
:10192000C5E90677FEF70AFF002818BFFEF7B0FDED
:10193000A5636C6240F27C0508F11400C2F2000558
:1019400000212022C5E900012846C5E90216C5E9A3
:101950000411C5E90621FEF7F1FE002818BFFEF7C5
:1019600097FD252000210022E5636C62FFF700F956
:101970002520FFF7EBF806B0BDE8F08190F8423083
:10198000202B0BD194460A4600294FF0010118BFC5
:10199000BCF1000F06D10846704700BF022108467F
:1019A000704700BF70B582B00025222105638262B6
:1019B000A0F82CC0456480F842100168C36B41F662
:1019C0007D5441F6DD6E41F60146C0F60004C0F6D6
:1019D000000EC0F60006C3E90A4EC3E90C650431E7
:1019E000044618466346FEF7EBFE01952168204643
:1019F0000A680192496801910199216931B300BFD8
:101A0000016851E8031F026841F4807142E8031342
:101A1000E3B1016851E8031F026841F4807142E8B4
:101A200003139BB1016851E8031F026841F4807100
:101A300042E8031353B1016851E8031F026841F4FF
:101A4000807142E80313002BDAD100BF016851E82E
:101A5000051F026841F0010142E80513BBB30168AC
:101A600051E8051F026841F0010142E8051373B314
:101A7000016851E8051F026841F0010142E80513C1
:101A80002BB3016851E8051F026841F0010142E8EB
:101A90000513002BDAD11AE0016851E8051F02682E
:101AA00041F0400142E80513DBB1016851E8051F30
:101AB000026841F0400142E8051393B1016851E822
:101AC000051F026841F0400142E805134BB101686F
:101AD00051E8051F026841F0400142E80513002B60
:101AE000DAD1002002B070BD7047000070470000DE
:101AF00090F84130202B09D1944600294FF0010283
:101B000018BFBCF1000F05D11046704702221046E5
:101B1000704700BF70B5002221230162A0F824C0E5
:101B2000A0F826C0426480F841300468836B41F617
:101B3000F56E41F6A57541F60146C0F6000EC0F6F9
:101B40000005C0F60006C3E90AE5C3E90C62221DE0
:101B5000044618466346FEF733FE216820466FF0C0
:101B600040020A60016851E8051F026841F08001E7
:101B700042E80513DBB1016851E8051F026841F036
:101B8000800142E8051393B1016851E8051F02681E
:101B900041F0800142E805134BB1016851E8051F8F
:101BA000026841F0800142E80513002BDAD10020E1
:101BB00070BD0000006843F60001C4F201018842D4
:101BC00018BF704740F27000C2F20000002181701F
:101BD0007047000070470000FEE70000FEE70000CD
:101BE000FEE700007047000070470000FEF746BFA8
:101BF00070470000406A0021C185C184FFF712BB15
:101C0000406A01684A6990F84130212B2DD112F0C9
:101C100080022AD00021C184016851E8031F0268B4
:101C200021F0C00142E80313DBB1016851E8031F52
:101C3000026821F0C00142E8031393B1016851E842
:101C4000031F026821F0C00142E803134BB1016891
:101C500051E8031F026821F0C00142E80313002B82
:101C6000DAD1202180F841100168496990F84220BA
:101C7000222A40F07D8011F0400179D00021C185F9
:101C8000016851E8031F026821F4907142E80313D0
:101C9000BBB3016851E8031F026821F4907142E868
:101CA000031373B3016851E8031F026821F49071B4
:101CB00042E803132BB3016851E8031F026821F4C3
:101CC000907142E80313002BDAD11AE0016851E861
:101CD000051F026821F0010142E80513DBB101682C
:101CE00051E8051F026821F0010142E8051393B194
:101CF000016851E8051F026821F0010142E805135F
:101D00004BB1016851E8051F026821F0010142E86A
:101D10000513002BDAD1016B012924D1016851E8A8
:101D2000031F026821F0100142E80313DBB10168D0
:101D300051E8031F026821F0100142E8031393B138
:101D4000016851E8031F026821F0100142E8031303
:101D50004BB1016851E8031F026821F0100142E80D
:101D60000313002BDAD1202180F8421000210163F7
:101D7000416C41F010014164FFF754BA0168406AB8
:101D80000968890600F19F800021C185016851E83A
:101D9000031F026821F4807142E80313E3B1016874
:101DA00051E8031F026821F4807142E803139BB1DC
:101DB000016851E8031F026821F4807142E80313AF
:101DC00053B1016851E8031F026821F4807142E8B1
:101DD0000313002BDAD100BF016851E8051F026828
:101DE00021F0010142E80513BBB3016851E8051F6A
:101DF000026821F0010142E8051373B3016851E85C
:101E0000051F026821F0010142E805132BB30168A8
:101E100051E8051F026821F0010142E80513002B7B
:101E2000DAD11AE0016851E8051F026821F040018B
:101E300042E80513DBB1016851E8051F026821F093
:101E4000400142E8051393B1016851E8051F02689B
:101E500021F0400142E805134BB1016851E8051F2C
:101E6000026821F0400142E80513002BDAD120215D
:101E700080F84210016B012925D100BF016851E8AB
:101E8000031F026821F0100142E80313DBB101686F
:101E900051E8031F026821F0100142E8031393B1D7
:101EA000016851E8031F026821F0100142E80313A2
:101EB0004BB1016851E8031F026821F0100142E8AC
:101EC0000313002BDAD100214163016B012918BFF4
:101ED000FFF70ABE818DFFF7A3B90000406A012118
:101EE0004163016B012918BFFFF700BE818D4908CE
:101EF000FFF796B90168406A0968890648BFFFF78D
:101F000059BE0021C18400BF016851E8051F026865
:101F100021F0800142E8051383B3016851E8051FF1
:101F2000026821F0800142E805133BB3016851E8E3
:101F3000051F026821F0800142E80513F3B1016832
:101F400051E8051F026821F0800142E80513002BCB
:101F5000DAD113E0016851E8031F026841F0400143
:101F600042E80313002B08BF7047016851E8031FC4
:101F7000026841F0400142E8031393B1016851E85F
:101F8000031F026841F0400142E803134BB10168AE
:101F900051E8031F026841F0400142E80313002B9F
:101FA000D8D17047406AFFF715BE000081B090F8A5
:101FB0004210222921D183680246B3F5805F09D1FE
:101FC00052F8281F52F8183C002B63D003685B6856
:101FD0000AE000BF52F8281F13B90369002BF5D09F
:101FE00003685B6803F07F030B70116801311160B7
:101FF000C18D01390A04C18502D001B0704700BF0C
:102000000168CA6822F02002CA60CA6822F480729D
:10201000CA604A6922F001024A61202180F8421018
:1020200000214163026B012A3CD10163016851E840
:10203000031F026821F0100142E80313DBB10168BD
:1020400051E8031F026821F0100142E8031393B125
:10205000016851E8031F026821F0100142E80313F0
:102060004BB1016851E8031F026821F0100142E8FA
:102070000313002BDAD101680A68D20606D50022C4
:1020800000920A680092496800910099818D01B020
:10209000FFF7C6B8026852686FF35F2221F8022B7F
:1020A0008162A5E701B0FFF71FBD000040F2841078
:1020B000C2F20000FFF7B8B8FEE7000090B0FEF7EC
:1020C000EBFC00240120CDE90B44CDE90944069046
:1020D0000A904FF4E0104FF4803102250F9006A8CB
:1020E000CDE90714CDE90D51FEF784FE20B1EFF3E1
:1020F000108072B6FEE700BF0F20CDE901054FF456
:102100008060CDE9040401A802210394FEF76CFD70
:1021100020B1EFF3108072B6FEE700BF41F2180065
:10212000C4F202000168002241F020010160016850
:10213000002401F0200106910699016841F0040194
:102140000160016801F004010691069950F8041C31
:1021500041F0010140F8041C50F8040C002100F08B
:102160000100069006980E20FEF702FD0E20FEF7F5
:10217000EDFC0F2000210022FEF7FAFC0F20FEF7F5
:10218000E5FC40F2841043F60001C2F20000C4F204
:1021900001010C234FF4E13280E81600C0E903444A
:1021A000C0E90534C461FFF7F7FA28B1EFF31080F6
:1021B00072B600BFFEE700BF40F2C00540F28410D7
:1021C000C2F20005C2F2000029468022FFF7D6FBCA
:1021D00040F27007C2F200076FF07F084FF6FE7AF8
:1021E00040F201194FF0000B00240DE00120B870FF
:1021F00040F28410C2F200003EA11022FFF778FCEA
:102200000020A7F8030000BFF86840687978A8EBC1
:102210000000C2B2531A38BF803303EA0A03762B98
:10222000387007D300247870A7F803907C81C7F832
:10223000064020E08A421ED03879E0B9FEF718FC4B
:1022400039787A7883468A4214D07889FB883C8929
:10225000D6B2AE5D0132303E092E02F07F0287BF5A
:1022600001343C810133FB808A4200F10100EFD14F
:10227000788179700124B8780028C5D1F8780128D0
:10228000B4D0FEF7F5FBA0EB0B000A28BCD3012C61
:10229000BAD140F2CC147A89FB883E89C2F200049C
:1022A000204609A10096FDF7A9FF012182B240F264
:1022B0008410B970C2F200002146FFF719FC002417
:1022C0007C81C7F806409FE7636F756E743A2025DE
:1022D000640A64696769745F636F756E743A202578
:1022E000640A636861725F636F756E743A20256477
:1022F0000A000000627566666572206F7665726618
:102300006C6F770A00000000000000000000000071
:10231000010203040607080900000000010203048B
:10232000010202030405060708090A0B0C0D0E0F33
:1023300010100000582300080000002010000000CA
:102340005001000868230008100000204008000029
:1023500070010008000000000100000010000000F3
:0823600000127A0000000000E9
:04000005080000ED02
:00000001FF
